{
  "contractName": "BuyMeACoffee",
  "abi": [
    {
      "inputs": [],
      "stateMutability": "nonpayable",
      "type": "constructor"
    },
    {
      "anonymous": false,
      "inputs": [
        {
          "indexed": true,
          "internalType": "address",
          "name": "from",
          "type": "address"
        },
        {
          "indexed": false,
          "internalType": "string",
          "name": "message",
          "type": "string"
        }
      ],
      "name": "MemoCreated",
      "type": "event"
    },
    {
      "inputs": [
        {
          "internalType": "string",
          "name": "_name",
          "type": "string"
        },
        {
          "internalType": "string",
          "name": "_message",
          "type": "string"
        }
      ],
      "name": "buyCoffee",
      "outputs": [],
      "stateMutability": "payable",
      "type": "function"
    },
    {
      "inputs": [],
      "name": "withdraw",
      "outputs": [],
      "stateMutability": "nonpayable",
      "type": "function"
    },
    {
      "inputs": [],
      "name": "viewMemos",
      "outputs": [
        {
          "components": [
            {
              "internalType": "address",
              "name": "from",
              "type": "address"
            },
            {
              "internalType": "uint256",
              "name": "timestemp",
              "type": "uint256"
            },
            {
              "internalType": "uint256",
              "name": "amount",
              "type": "uint256"
            },
            {
              "internalType": "string",
              "name": "name",
              "type": "string"
            },
            {
              "internalType": "string",
              "name": "message",
              "type": "string"
            }
          ],
          "internalType": "struct BuyMeACoffee.Memo[]",
          "name": "",
          "type": "tuple[]"
        }
      ],
      "stateMutability": "view",
      "type": "function"
    },
    {
      "inputs": [],
      "name": "getBalance",
      "outputs": [
        {
          "internalType": "uint256",
          "name": "",
          "type": "uint256"
        }
      ],
      "stateMutability": "view",
      "type": "function"
    }
  ],
  "bytecode": "0x608060405234801561001057600080fd5b5033600160006101000a81548173ffffffffffffffffffffffffffffffffffffffff021916908373ffffffffffffffffffffffffffffffffffffffff160217905550610dd1806100616000396000f3fe60806040526004361061003f5760003560e01c806312065fe014610044578063204206e11461006f57806323ed6f8e1461008b5780633ccfd60b146100b6575b600080fd5b34801561005057600080fd5b506100596100cd565b604051610066919061055c565b60405180910390f35b610089600480360381019061008491906106d1565b6100d5565b005b34801561009757600080fd5b506100a061025b565b6040516100ad9190610957565b60405180910390f35b3480156100c257600080fd5b506100cb610448565b005b600047905090565b60003411610118576040517f08c379a000000000000000000000000000000000000000000000000000000000815260040161010f906109d6565b60405180910390fd5b60006040518060a001604052803373ffffffffffffffffffffffffffffffffffffffff16815260200142815260200134815260200184815260200183815250908060018154018082558091505060019003906000526020600020906005020160009091909190915060008201518160000160006101000a81548173ffffffffffffffffffffffffffffffffffffffff021916908373ffffffffffffffffffffffffffffffffffffffff160217905550602082015181600101556040820151816002015560608201518160030190816101f09190610c02565b5060808201518160040190816102069190610c02565b5050503373ffffffffffffffffffffffffffffffffffffffff167f1814c6ddcdf5e3c5f47a17b1bf01261acb87077b02fcbfc38662b7b94c64a6a18260405161024f9190610d0d565b60405180910390a25050565b60606000805480602002602001604051908101604052809291908181526020016000905b8282101561043f57838290600052602060002090600502016040518060a00160405290816000820160009054906101000a900473ffffffffffffffffffffffffffffffffffffffff1673ffffffffffffffffffffffffffffffffffffffff1673ffffffffffffffffffffffffffffffffffffffff168152602001600182015481526020016002820154815260200160038201805461031c90610a25565b80601f016020809104026020016040519081016040528092919081815260200182805461034890610a25565b80156103955780601f1061036a57610100808354040283529160200191610395565b820191906000526020600020905b81548152906001019060200180831161037857829003601f168201915b505050505081526020016004820180546103ae90610a25565b80601f01602080910402602001604051908101604052809291908181526020018280546103da90610a25565b80156104275780601f106103fc57610100808354040283529160200191610427565b820191906000526020600020905b81548152906001019060200180831161040a57829003601f168201915b5050505050815250508152602001906001019061027f565b50505050905090565b600160009054906101000a900473ffffffffffffffffffffffffffffffffffffffff1673ffffffffffffffffffffffffffffffffffffffff163373ffffffffffffffffffffffffffffffffffffffff16146104d8576040517f08c379a00000000000000000000000000000000000000000000000000000000081526004016104cf90610d7b565b60405180910390fd5b600160009054906101000a900473ffffffffffffffffffffffffffffffffffffffff1673ffffffffffffffffffffffffffffffffffffffff166108fc479081150290604051600060405180830381858888f19350505050158015610540573d6000803e3d6000fd5b50565b6000819050919050565b61055681610543565b82525050565b6000602082019050610571600083018461054d565b92915050565b6000604051905090565b600080fd5b600080fd5b600080fd5b600080fd5b6000601f19601f8301169050919050565b7f4e487b7100000000000000000000000000000000000000000000000000000000600052604160045260246000fd5b6105de82610595565b810181811067ffffffffffffffff821117156105fd576105fc6105a6565b5b80604052505050565b6000610610610577565b905061061c82826105d5565b919050565b600067ffffffffffffffff82111561063c5761063b6105a6565b5b61064582610595565b9050602081019050919050565b82818337600083830152505050565b600061067461066f84610621565b610606565b9050828152602081018484840111156106905761068f610590565b5b61069b848285610652565b509392505050565b600082601f8301126106b8576106b761058b565b5b81356106c8848260208601610661565b91505092915050565b600080604083850312156106e8576106e7610581565b5b600083013567ffffffffffffffff81111561070657610705610586565b5b610712858286016106a3565b925050602083013567ffffffffffffffff81111561073357610732610586565b5b61073f858286016106a3565b9150509250929050565b600081519050919050565b600082825260208201905092915050565b6000819050602082019050919050565b600073ffffffffffffffffffffffffffffffffffffffff82169050919050565b60006107a082610775565b9050919050565b6107b081610795565b82525050565b6107bf81610543565b82525050565b600081519050919050565b600082825260208201905092915050565b60005b838110156107ff5780820151818401526020810190506107e4565b60008484015250505050565b6000610816826107c5565b61082081856107d0565b93506108308185602086016107e1565b61083981610595565b840191505092915050565b600060a08301600083015161085c60008601826107a7565b50602083015161086f60208601826107b6565b50604083015161088260408601826107b6565b506060830151848203606086015261089a828261080b565b915050608083015184820360808601526108b4828261080b565b9150508091505092915050565b60006108cd8383610844565b905092915050565b6000602082019050919050565b60006108ed82610749565b6108f78185610754565b93508360208202850161090985610765565b8060005b85811015610945578484038952815161092685826108c1565b9450610931836108d5565b925060208a0199505060018101905061090d565b50829750879550505050505092915050565b6000602082019050818103600083015261097181846108e2565b905092915050565b600082825260208201905092915050565b7f596f75206e65656420746f2073656e6420736f6d652065746865720000000000600082015250565b60006109c0601b83610979565b91506109cb8261098a565b602082019050919050565b600060208201905081810360008301526109ef816109b3565b9050919050565b7f4e487b7100000000000000000000000000000000000000000000000000000000600052602260045260246000fd5b60006002820490506001821680610a3d57607f821691505b602082108103610a5057610a4f6109f6565b5b50919050565b60008190508160005260206000209050919050565b60006020601f8301049050919050565b600082821b905092915050565b600060088302610ab87fffffffffffffffffffffffffffffffffffffffffffffffffffffffffffffffff82610a7b565b610ac28683610a7b565b95508019841693508086168417925050509392505050565b6000819050919050565b6000610aff610afa610af584610543565b610ada565b610543565b9050919050565b6000819050919050565b610b1983610ae4565b610b2d610b2582610b06565b848454610a88565b825550505050565b600090565b610b42610b35565b610b4d818484610b10565b505050565b5b81811015610b7157610b66600082610b3a565b600181019050610b53565b5050565b601f821115610bb657610b8781610a56565b610b9084610a6b565b81016020851015610b9f578190505b610bb3610bab85610a6b565b830182610b52565b50505b505050565b600082821c905092915050565b6000610bd960001984600802610bbb565b1980831691505092915050565b6000610bf28383610bc8565b9150826002028217905092915050565b610c0b826107c5565b67ffffffffffffffff811115610c2457610c236105a6565b5b610c2e8254610a25565b610c39828285610b75565b600060209050601f831160018114610c6c5760008415610c5a578287015190505b610c648582610be6565b865550610ccc565b601f198416610c7a86610a56565b60005b82811015610ca257848901518255600182019150602085019450602081019050610c7d565b86831015610cbf5784890151610cbb601f891682610bc8565b8355505b6001600288020188555050505b505050505050565b6000610cdf826107c5565b610ce98185610979565b9350610cf98185602086016107e1565b610d0281610595565b840191505092915050565b60006020820190508181036000830152610d278184610cd4565b905092915050565b7f596f7520617265206e6f7420746865206f776e65720000000000000000000000600082015250565b6000610d65601583610979565b9150610d7082610d2f565b602082019050919050565b60006020820190508181036000830152610d9481610d58565b905091905056fea2646970667358221220e6dd54bc124cd7af9f950812bcaf838bd4db7a051147b77e28de615a02d8908164736f6c63430008130033",
  "immutableReferences": {},
  "source": "// SPDX-License-Identifier: MIT\npragma solidity >=0.4.22 <0.9.0;\n\ncontract BuyMeACoffee {\n    // events to emit when a Memo is created\n    event MemoCreated(address indexed from, string message);\n\n    // Memo data struct\n    struct Memo {\n        address from;\n        uint256 timestemp;\n        uint amount;\n        string name;\n        string message;\n    }\n\n    // list of all Memos\n    Memo[] memos;\n\n    // contract owner variable\n    address payable owner;\n\n    // deploy logic\n    constructor() {\n        owner = payable(msg.sender);\n    }\n\n    /**\n     * @dev function for buy coffee for contract owner\n     * @param _name name of coffee buyer\n     * @param _message sweet message from buyer\n     */\n    function buyCoffee(\n        string memory _name,\n        string memory _message\n    ) public payable {\n        require(msg.value > 0, \"You need to send some ether\");\n        memos.push(\n            Memo(msg.sender, block.timestamp, msg.value, _name, _message)\n        );\n        emit MemoCreated(msg.sender, _message);\n    }\n\n    /**\n     * @dev function for withdraw all contract balance to owner\n     */\n    function withdraw() public {\n        require(msg.sender == owner, \"You are not the owner\");\n        owner.transfer(address(this).balance);\n    }\n\n    /**\n     * @dev function for view all memos\n     */\n    function viewMemos() public view returns (Memo[] memory) {\n        return memos;\n    }\n\n    /**\n     * @dev function for get total balance of contract\n     */\n\n    function getBalance() public view returns (uint256) {\n        return address(this).balance;\n    }\n}\n",
  "sourcePath": "/Users/0xdevil/Desktop/learning/min-projects/buy-me-a-coffee/contracts/BuyMeACoffee.sol",
  "compiler": {
    "name": "solc",
    "version": "0.8.19+commit.7dd6d404.Emscripten.clang"
  },
  "schemaVersion": "3.4.14",
  "updatedAt": "2023-05-24T12:05:58.503Z",
  "devdoc": {
    "kind": "dev",
    "methods": {
      "buyCoffee(string,string)": {
        "details": "function for buy coffee for contract owner",
        "params": {
          "_message": "sweet message from buyer",
          "_name": "name of coffee buyer"
        }
      },
      "getBalance()": {
        "details": "function for get total balance of contract"
      },
      "viewMemos()": {
        "details": "function for view all memos"
      },
      "withdraw()": {
        "details": "function for withdraw all contract balance to owner"
      }
    },
    "version": 1
  },
  "userdoc": {
    "kind": "user",
    "methods": {},
    "version": 1
  }
}